{"address":"0x99F23Aa8Faf587f4552A85DeE95B09f71879A7da","bytecode":"0x60a060405234801561001057600080fd5b506040516109e33803806109e383398101604081905261002f916100ef565b338061005557604051631e4fbdf760e01b81526000600482015260240160405180910390fd5b61005e81610087565b506001600160a01b03918216608052600180546001600160a01b03191691909216179055610129565b600080546001600160a01b038381166001600160a01b0319831681178455604051919092169283917f8be0079c531659141344cd1fd0a4f28419497f9722a3daafe3b4186f6b6457e09190a35050565b6001600160a01b03811681146100ec57600080fd5b50565b6000806040838503121561010257600080fd5b825161010d816100d7565b602084015190925061011e816100d7565b809150509250929050565b60805161088461015f60003960008181608c015281816101e10152818161026f01528181610361015261045201526108846000f3fe6080604052600436106100785760003560e01c8063715018a61161004b578063715018a6146101375780638da5cb5b1461014c578063c9028a361461016a578063f2fde38b1461018a57005b8063116191b61461007a5780631cca0d78146100cb57806357333b86146100eb578063676cc0541461010b575b005b34801561008657600080fd5b506100ae7f000000000000000000000000000000000000000000000000000000000000000081565b6040516001600160a01b0390911681526020015b60405180910390f35b3480156100d757600080fd5b506100786100e636600461055a565b6101aa565b3480156100f757600080fd5b506001546100ae906001600160a01b031681565b61011e61011936600461057c565b6101d4565b6040516001600160e01b031990911681526020016100c2565b34801561014357600080fd5b50610078610250565b34801561015857600080fd5b506000546001600160a01b03166100ae565b34801561017657600080fd5b50610078610185366004610609565b610264565b34801561019657600080fd5b506100786101a536600461055a565b6102e6565b6101b2610329565b600180546001600160a01b0319166001600160a01b0392909216919091179055565b6000336001600160a01b037f0000000000000000000000000000000000000000000000000000000000000000161461021e576040516282b42960e81b815260040160405180910390fd5b600061022d8360048187610644565b81019061023a919061066e565b905061024581610356565b506000949350505050565b610258610329565b61026260006104ee565b565b336001600160a01b037f000000000000000000000000000000000000000000000000000000000000000016146102ac576040516282b42960e81b815260040160405180910390fd5b7fa7a2dd1f61a16e9be16558337ccaf27e4bb90761ccfab75065f0003f25a14037816040516102db91906106b0565b60405180910390a150565b6102ee610329565b6001600160a01b03811661031d57604051631e4fbdf760e01b8152600060048201526024015b60405180910390fd5b610326816104ee565b50565b6000546001600160a01b031633146102625760405163118cdaa760e01b8152336004820152602401610314565b336001600160a01b037f0000000000000000000000000000000000000000000000000000000000000000161461039e576040516282b42960e81b815260040160405180910390fd5b60405181907e28075d150cbd12889f4ca05003d16cc6b9142eca191c3241d8c9bcf7b94bb290600090a26040805160a08101825260008082526020808301829052828401829052835190810184528181526060830152620493e0608083015291516024810184905290919060440160408051601f198184030181529181526020820180516001600160e01b031663d986696360e01b17905260015490516306fb33ad60e21b81529192506001600160a01b037f0000000000000000000000000000000000000000000000000000000000000000811692631becceb49261048c921690859087906004016107c6565b600060405180830381600087803b1580156104a657600080fd5b505af11580156104ba573d6000803e3d6000fd5b50506040518592507f0e6864ae272575ae2e1733d7b69809f0c45315b2933b11d22ae4add611145b2e9150600090a2505050565b600080546001600160a01b038381166001600160a01b0319831681178455604051919092169283917f8be0079c531659141344cd1fd0a4f28419497f9722a3daafe3b4186f6b6457e09190a35050565b80356001600160a01b038116811461055557600080fd5b919050565b60006020828403121561056c57600080fd5b6105758261053e565b9392505050565b6000806000838503604081121561059257600080fd5b60208112156105a057600080fd5b50839250602084013567ffffffffffffffff8111156105be57600080fd5b8401601f810186136105cf57600080fd5b803567ffffffffffffffff8111156105e657600080fd5b8660208284010111156105f857600080fd5b939660209190910195509293505050565b60006020828403121561061b57600080fd5b813567ffffffffffffffff81111561063257600080fd5b82016080818503121561057557600080fd5b6000808585111561065457600080fd5b8386111561066157600080fd5b5050820193919092039150565b60006020828403121561068057600080fd5b5035919050565b81835281816020850137506000828201602090810191909152601f909101601f19169091010190565b6040808252601590820152742932bb32b93a10333937b6902d32ba30a1b430b4b760591b6060820152608060208201526001600160a01b036106f18361053e565b1660808201526001600160a01b0361070b6020840161053e565b1660a0820152604082013560c08201526000606083013536849003601e1901811261073557600080fd5b830160208101903567ffffffffffffffff81111561075257600080fd5b80360382131561076157600080fd5b608060e085015261077761010085018284610687565b95945050505050565b6000815180845260005b818110156107a65760208185018101518683018201520161078a565b506000602082860101526020601f19601f83011685010191505092915050565b6001600160a01b03841681526060602082018190526000906107ea90830185610780565b828103604084015260018060a01b03845116815260208401511515602082015260018060a01b036040850151166040820152606084015160a0606083015261083560a0830182610780565b905060808501516080830152809250505094935050505056fea2646970667358221220503d6f06282c298d832ece039cef420036e2634753f8bcf0bf452c88b047e5f464736f6c634300081a0033","abi":[{"inputs":[{"internalType":"address payable","name":"gatewayAddress","type":"address"},{"internalType":"address","name":"_universalContract","type":"address"}],"stateMutability":"nonpayable","type":"constructor"},{"inputs":[{"internalType":"address","name":"owner","type":"address"}],"name":"OwnableInvalidOwner","type":"error"},{"inputs":[{"internalType":"address","name":"account","type":"address"}],"name":"OwnableUnauthorizedAccount","type":"error"},{"inputs":[],"name":"Unauthorized","type":"error"},{"anonymous":false,"inputs":[{"indexed":true,"internalType":"uint256","name":"orderId","type":"uint256"}],"name":"CallbackReceived","type":"event"},{"anonymous":false,"inputs":[{"indexed":true,"internalType":"uint256","name":"orderId","type":"uint256"}],"name":"CallbackSent","type":"event"},{"anonymous":false,"inputs":[{"indexed":false,"internalType":"string","name":"","type":"string"},{"indexed":false,"internalType":"string","name":"","type":"string"}],"name":"HelloEvent","type":"event"},{"anonymous":false,"inputs":[{"indexed":true,"internalType":"address","name":"previousOwner","type":"address"},{"indexed":true,"internalType":"address","name":"newOwner","type":"address"}],"name":"OwnershipTransferred","type":"event"},{"anonymous":false,"inputs":[{"indexed":false,"internalType":"string","name":"","type":"string"},{"components":[{"internalType":"address","name":"sender","type":"address"},{"internalType":"address","name":"asset","type":"address"},{"internalType":"uint256","name":"amount","type":"uint256"},{"internalType":"bytes","name":"revertMessage","type":"bytes"}],"indexed":false,"internalType":"struct RevertContext","name":"","type":"tuple"}],"name":"RevertEvent","type":"event"},{"stateMutability":"payable","type":"fallback"},{"inputs":[],"name":"gateway","outputs":[{"internalType":"contract GatewayEVM","name":"","type":"address"}],"stateMutability":"view","type":"function"},{"inputs":[{"components":[{"internalType":"address","name":"sender","type":"address"}],"internalType":"struct MessageContext","name":"context","type":"tuple"},{"internalType":"bytes","name":"message","type":"bytes"}],"name":"onCall","outputs":[{"internalType":"bytes4","name":"","type":"bytes4"}],"stateMutability":"payable","type":"function"},{"inputs":[{"components":[{"internalType":"address","name":"sender","type":"address"},{"internalType":"address","name":"asset","type":"address"},{"internalType":"uint256","name":"amount","type":"uint256"},{"internalType":"bytes","name":"revertMessage","type":"bytes"}],"internalType":"struct RevertContext","name":"revertContext","type":"tuple"}],"name":"onRevert","outputs":[],"stateMutability":"nonpayable","type":"function"},{"inputs":[],"name":"owner","outputs":[{"internalType":"address","name":"","type":"address"}],"stateMutability":"view","type":"function"},{"inputs":[],"name":"renounceOwnership","outputs":[],"stateMutability":"nonpayable","type":"function"},{"inputs":[{"internalType":"address","name":"_universalContract","type":"address"}],"name":"setUniversalContract","outputs":[],"stateMutability":"nonpayable","type":"function"},{"inputs":[{"internalType":"address","name":"newOwner","type":"address"}],"name":"transferOwnership","outputs":[],"stateMutability":"nonpayable","type":"function"},{"inputs":[],"name":"universalContract","outputs":[{"internalType":"address","name":"","type":"address"}],"stateMutability":"view","type":"function"}]}