{"address":"0x2b81CA6bc0a4759BA7474cC5a1E3DD5c9A4c952c","bytecode":"0x60e0604052600160095534801561001557600080fd5b506040516136e43803806136e48339810160408190526100349161016a565b6001600160a01b0389811660805288811660a052600080546001600160a01b03199081168a841617909155600180548216898416179055600287905560038054909116918616919091179055600461008c848261034b565b506001600160a01b0382811660c0819052600780546001600160a01b03191684841617905560805160405163095ea7b360e01b81529216600483015260001960248301529063095ea7b3906044016020604051808303816000875af11580156100f9573d6000803e3d6000fd5b505050506040513d601f19601f8201168201806040525081019061011d9190610409565b50505050505050505050610432565b6001600160a01b038116811461014157600080fd5b50565b805161014f8161012c565b919050565b634e487b7160e01b600052604160045260246000fd5b60008060008060008060008060006101208a8c03121561018957600080fd5b89516101948161012c565b60208b01519099506101a58161012c565b60408b01519098506101b68161012c565b60608b01519097506101c78161012c565b60808b015160a08c015191975095506101df8161012c565b60c08b01519094506001600160401b038111156101fb57600080fd5b8a016000601f82018d1361020d578081fd5b81516001600160401b0381111561022657610226610154565b604051601f8201601f19908116603f011681016001600160401b038111828210171561025457610254610154565b6040528181528382016020018f101561026b578283fd5b825b828110156102895760208186018101518383018201520161026d565b509081016020019190915293506102a4905060e08b01610144565b91506102b36101008b01610144565b90509295985092959850929598565b600181811c908216806102d657607f821691505b6020821081036102f657634e487b7160e01b600052602260045260246000fd5b50919050565b601f82111561034657806000526020600020601f840160051c810160208510156103235750805b601f840160051c820191505b81811015610343576000815560010161032f565b50505b505050565b81516001600160401b0381111561036457610364610154565b6103788161037284546102c2565b846102fc565b6020601f8211600181146103ac57600083156103945750848201515b600019600385901b1c1916600184901b178455610343565b600084815260208120601f198516915b828110156103dc57878501518255602094850194600190920191016103bc565b50848210156103fa5786840151600019600387901b60f8161c191681555b50505050600190811b01905550565b60006020828403121561041b57600080fd5b8151801515811461042b57600080fd5b9392505050565b60805160a05160c05161322f6104b5600039600081816103f401528181611328015281816113e7015281816120ee0152818161217b01526122b00152600081816107090152610c130152600081816102ea015281816108db0152818161096f01528181610b95015281816111b2015281816114810152612281015261322f6000f3fe6080604052600436106101e65760003560e01c8063542f0e6011610102578063a85c38ef11610095578063d986696311610064578063d986696314610697578063f199aeb0146106b7578063f2fde38b146106d7578063f5d6ac90146106f757600080fd5b8063a85c38ef146105a8578063c31c9c071461062a578063c9028a361461064a578063d0cb96e31461066a57600080fd5b806387f438c4116100d157806387f438c4146105015780638da5cb5b1461052e578063924d68e31461054e57806393705f321461057b57600080fd5b8063542f0e601461048c5780635b06dece146104ac5780635bcfd616146104cc57806382894ced146104ec57600080fd5b80632a58b3301161017a5780633a219c29116101495780633a219c291461041657806342cb987314610436578063448e00c91461044c578063514fcac71461046c57600080fd5b80632a58b330146103825780632d4cfb7e14610398578063330c5358146103b857806338f22fad146103e257600080fd5b806311eac855116101b657806311eac8551461032457806317a85b1a146103445780631d3663501461034c5780632357928e1461036257600080fd5b8062df475e146102695780630157a3961461029457806306cb8983146102b8578063116191b6146102d857600080fd5b3661026457341561026257346005600082825461020391906126cb565b9091555050336000908152600b6020526040812080543492906102279084906126cb565b909155505060405134815233907ff6f389e2ea92f4038cd331306f11337f16086e9eac150cbcbf14eaa98a0b0ffb9060200160405180910390a25b005b600080fd5b34801561027557600080fd5b5061027e61072b565b60405161028b919061272a565b60405180910390f35b3480156102a057600080fd5b506102aa60055481565b60405190815260200161028b565b3480156102c457600080fd5b506102626102d3366004612945565b6107b9565b3480156102e457600080fd5b5061030c7f000000000000000000000000000000000000000000000000000000000000000081565b6040516001600160a01b03909116815260200161028b565b34801561033057600080fd5b5060015461030c906001600160a01b031681565b6102626109e9565b34801561035857600080fd5b506102aa60025481565b34801561036e57600080fd5b5061026261037d366004612a28565b610a7c565b34801561038e57600080fd5b506102aa60095481565b3480156103a457600080fd5b506102626103b3366004612a41565b610b8a565b3480156103c457600080fd5b506103cd610c0c565b6040805192835260208301919091520161028b565b3480156103ee57600080fd5b5061030c7f000000000000000000000000000000000000000000000000000000000000000081565b34801561042257600080fd5b50610262610431366004612a7b565b610cbe565b34801561044257600080fd5b506102aa60065481565b34801561045857600080fd5b5060035461030c906001600160a01b031681565b34801561047857600080fd5b50610262610487366004612a28565b610d08565b34801561049857600080fd5b506102626104a7366004612a28565b610ee2565b3480156104b857600080fd5b506102626104c7366004612a28565b611053565b3480156104d857600080fd5b506102626104e7366004612aa7565b6111a7565b3480156104f857600080fd5b506102626112e6565b34801561050d57600080fd5b506102aa61051c366004612b36565b600c6020526000908152604090205481565b34801561053a57600080fd5b5060075461030c906001600160a01b031681565b34801561055a57600080fd5b506102aa610569366004612b36565b600b6020526000908152604090205481565b34801561058757600080fd5b506102aa610596366004612b36565b600a6020526000908152604090205481565b3480156105b457600080fd5b506106166105c3366004612a28565b600860205260009081526040902080546001820154600283015460038401546004850154600586015460069096015494956001600160a01b03909416949293919290919060ff8082169161010090041688565b60405161028b989796959493929190612b8b565b34801561063657600080fd5b5060005461030c906001600160a01b031681565b34801561065657600080fd5b50610262610665366004612be0565b611476565b34801561067657600080fd5b506102aa610685366004612b36565b600d6020526000908152604090205481565b3480156106a357600080fd5b506102626106b2366004612a28565b6114ed565b3480156106c357600080fd5b506102626106d2366004612c1a565b61160d565b3480156106e357600080fd5b506102626106f2366004612b36565b6116c2565b34801561070357600080fd5b5061030c7f000000000000000000000000000000000000000000000000000000000000000081565b6004805461073890612c4c565b80601f016020809104026020016040519081016040528092919081815260200182805461076490612c4c565b80156107b15780601f10610786576101008083540402835291602001916107b1565b820191906000526020600020905b81548152906001019060200180831161079457829003601f168201915b505050505081565b815160405163fc5fecd560e01b81526000916001600160a01b0388169163fc5fecd5916107ec9160040190815260200190565b6040805180830381865afa158015610808573d6000803e3d6000fd5b505050506040513d601f19601f8201168201806040525081019061082c9190612c86565b6040516323b872dd60e01b8152336004820152306024820152604481018290529092506001600160a01b03881691506323b872dd906064016020604051808303816000875af1158015610883573d6000803e3d6000fd5b505050506040513d601f19601f820116820180604052508101906108a79190612cb4565b6108c4576040516312171d8360e31b815260040160405180910390fd5b60405163095ea7b360e01b81526001600160a01b037f0000000000000000000000000000000000000000000000000000000000000000811660048301526024820183905287169063095ea7b3906044016020604051808303816000875af1158015610933573d6000803e3d6000fd5b505050506040513d601f19601f820116820180604052508101906109579190612cb4565b506040516306cb898360e01b81526001600160a01b037f000000000000000000000000000000000000000000000000000000000000000016906306cb8983906109ae908a908a908a908a908a908a90600401612d53565b600060405180830381600087803b1580156109c857600080fd5b505af11580156109dc573d6000803e3d6000fd5b5050505050505050505050565b34600003610a0a5760405163356680b760e01b815260040160405180910390fd5b3460056000828254610a1c91906126cb565b9091555050336000908152600b602052604081208054349290610a409084906126cb565b909155505060405134815233907ff6f389e2ea92f4038cd331306f11337f16086e9eac150cbcbf14eaa98a0b0ffb9060200160405180910390a2565b6001546040516323b872dd60e01b8152336004820152306024820152604481018390526001600160a01b03909116906323b872dd906064016020604051808303816000875af1158015610ad3573d6000803e3d6000fd5b505050506040513d601f19601f82011682018060405250810190610af79190612cb4565b610b14576040516312171d8360e31b815260040160405180910390fd5b336000908152600a602052604081208054839290610b339084906126cb565b925050819055508060066000828254610b4c91906126cb565b909155505060405181815233907f36e229bdaedfa85d503535ae31c3ac9e40d88f1ab4fa53870ef2da82df48e990906020015b60405180910390a250565b336001600160a01b037f00000000000000000000000000000000000000000000000000000000000000001614610bd2576040516282b42960e81b815260040160405180910390fd5b7f1db2949e4142fe8b641ad8aad998e42b8968ccf18acb94c49c4c9f5d67eaa92781604051610c019190612e01565b60405180910390a150565b60008060007f00000000000000000000000000000000000000000000000000000000000000006001600160a01b03166396834ad36002546040518263ffffffff1660e01b8152600401610c6191815260200190565b608060405180830381865afa158015610c7e573d6000803e3d6000fd5b505050506040513d601f19601f82011682018060405250810190610ca29190612ec8565b80516060909101516001600160401b0390911694909350915050565b6009805460009182610ccf83612f44565b90915550600081815260086020526040902060010180546001600160a01b031916331790559050610d0284848484611764565b50505050565b8060095481101580610d315750600081815260086020526040902060060154610100900460ff16155b15610d4f5760405163af61069360e01b815260040160405180910390fd5b600082815260086020526040902060018101546001600160a01b03163314610d89576040516282b42960e81b815260040160405180910390fd5b60068101805461ff0019811690915560019060ff1681811115610dae57610dae612b53565b03610e2557600281015460018201546001600160a01b03166000908152600b602052604081208054909190610de49084906126cb565b9091555050600281015460018201546001600160a01b03166000908152600d602052604081208054909190610e1a908490612f5d565b90915550610eb29050565b6000620f424082600301548360020154610e3f9190612f70565b610e499190612f87565b60018301546001600160a01b03166000908152600a6020526040812080549293508392909190610e7a9084906126cb565b909155505060018201546001600160a01b03166000908152600c602052604081208054839290610eab908490612f5d565b9091555050505b60405183907f61b9399f2f0f32ca39ce8d7be32caed5ec22fe07a6daba3a467ed479ec60658290600090a2505050565b336000908152600b6020526040902054811115610f125760405163356680b760e01b815260040160405180910390fd5b806005541015610f355760405163356680b760e01b815260040160405180910390fd5b336000908152600b602052604081208054839290610f54908490612f5d565b925050819055508060056000828254610f6d9190612f5d565b9091555050604051600090339083908381818185875af1925050503d8060008114610fb4576040519150601f19603f3d011682016040523d82523d6000602084013e610fb9565b606091505b505090508061101a57336000908152600b602052604081208054849290610fe19084906126cb565b925050819055508160056000828254610ffa91906126cb565b925050819055506040516312171d8360e31b815260040160405180910390fd5b60405182815233907f97d3cdd2b1f7e0e603ddc33073045d3f3defbcd5b4c07a834f86892d159710389060200160405180910390a25050565b336000908152600a60205260409020548111156110835760405163356680b760e01b815260040160405180910390fd5b8060065410156110a65760405163356680b760e01b815260040160405180910390fd5b336000908152600a6020526040812080548392906110c5908490612f5d565b9250508190555080600660008282546110de9190612f5d565b909155505060015460405163a9059cbb60e01b8152336004820152602481018390526001600160a01b039091169063a9059cbb906044016020604051808303816000875af1158015611134573d6000803e3d6000fd5b505050506040513d601f19601f820116820180604052508101906111589190612cb4565b611175576040516312171d8360e31b815260040160405180910390fd5b60405181815233907f0d1589f631deb2542273b007140b132a18d48a4303d103fe64d353db07e01b5790602001610b7f565b336001600160a01b037f000000000000000000000000000000000000000000000000000000000000000016146111ef576040516282b42960e81b815260040160405180910390fd5b6000600482106112005750813560e01c5b63c982bb2760e01b6001600160e01b031982160161125957600954600484013590811080156112455750600081815260086020526040902060060154610100900460ff165b1561125357611253816114ed565b506112de565b7f39f8c79736fed93bca390bb3d6ff7da07482edb61cd7dafcfba496821d6ab7a36040516112d5906040808252601290820152712432b636379037b7102d32ba30a1b430b4b760711b60608201526080602082018190526010908201526f5265636569766564206d65737361676560801b60a082015260c00190565b60405180910390a15b505050505050565b6007546001600160a01b03163314611310576040516282b42960e81b815260040160405180910390fd5b6040516370a0823160e01b81523060048201526000907f00000000000000000000000000000000000000000000000000000000000000006001600160a01b0316906370a0823190602401602060405180830381865afa158015611377573d6000803e3d6000fd5b505050506040513d601f19601f8201168201806040525081019061139b9190612fa9565b9050806000036113be5760405163356680b760e01b815260040160405180910390fd5b60075460405163a9059cbb60e01b81526001600160a01b039182166004820152602481018390527f00000000000000000000000000000000000000000000000000000000000000009091169063a9059cbb906044016020604051808303816000875af1158015611432573d6000803e3d6000fd5b505050506040513d601f19601f820116820180604052508101906114569190612cb4565b611473576040516312171d8360e31b815260040160405180910390fd5b50565b336001600160a01b037f000000000000000000000000000000000000000000000000000000000000000016146114be576040516282b42960e81b815260040160405180910390fd5b7fa7a2dd1f61a16e9be16558337ccaf27e4bb90761ccfab75065f0003f25a1403781604051610c019190612fc2565b80600954811015806115165750600081815260086020526040902060060154610100900460ff16155b156115345760405163af61069360e01b815260040160405180910390fd5b60008281526008602052604081209061154b610c0c565b509050611559816064612f70565b905060006001600684015460ff16600181111561157857611578612b53565b0361158b57506004820154811015611595565b5060038201548111155b60038301546004840154604080518581526020810193909352820152811515606082015285907f5f4075d4a73b8c52158e90425d0d467d34b5cf3f5296c6c6e7a72b4f9d64544e9060800160405180910390a280156115fd576115f8858361195c565b611606565b6116068561207e565b5050505050565b6000620f424061161d8587612f70565b6116279190612f87565b336000908152600a602052604090205490915081111561165a5760405163356680b760e01b815260040160405180910390fd5b6103e882111561167d5760405163af61069360e01b815260040160405180910390fd5b600980546000918261168e83612f44565b90915550600081815260086020526040902060010180546001600160a01b0319163317905590506112de86868686856123a5565b6007546001600160a01b031633146116ec576040516282b42960e81b815260040160405180910390fd5b6001600160a01b038116611712576040516282b42960e81b815260040160405180910390fd5b600780546001600160a01b038381166001600160a01b0319831681179093556040519116919082907f8be0079c531659141344cd1fd0a4f28419497f9722a3daafe3b4186f6b6457e090600090a35050565b6000818152600860209081526040808320600101546001600160a01b0316808452600b90925282205490918190036117af5760405163356680b760e01b815260040160405180910390fd5b6103e88411156117d25760405163af61069360e01b815260040160405180910390fd5b6001600160a01b0382166000908152600b6020526040812080548392906117fa908490612f5d565b90915550506001600160a01b0382166000908152600d6020526040812080548392906118279084906126cb565b909155505060408051610100810182528481526001600160a01b038481166020808401918252838501868152606085018c8152608086018c815260a087018c8152600160c0890181815260e08a0182905260008e815260089097529990952088518155955186860180546001600160a01b0319169190981617909655915160028501555160038401555160048301559151600582015592516006840180549394939192909160ff19169083818111156118e2576118e2612b53565b021790555060e08201518160060160016101000a81548160ff021916908315150217905550905050816001600160a01b0316837fbca4816edaab33691a6807e1676a051d59ee0cfdaf4854d8a8a4785025b27cfd6001848a8a60405161194b949392919061305d565b60405180910390a36112de836114ed565b60008281526008602052604090206001600682015460ff16600181111561198557611985612b53565b03611c095760006402540be40082600501546127106119a49190612f5d565b836004015484600201546119b89190612f70565b6119c29190612f70565b6119cc9190612f87565b6040805160e081018252735f0b1a82749cb4e2278ec87f8bf6b618dc71a8bf81526001546001600160a01b03166020820152309181019190915290915060009060608101611a1c426103846126cb565b8152600285015460208201819052604080830186905260006060909301839052915491516304c76d0d60e31b81529293506001600160a01b039091169163263b68689190611a6e908590600401613086565b60206040518083038185885af193505050508015611aa9575060408051601f3d908101601f19168201909252611aa691810190612fa9565b60015b611ab6576116068561207e565b82811015611ac7576112de8661207e565b60018401546001600160a01b03166000908152600a602052604081208054839290611af39084906126cb565b9091555050600284015460018501546001600160a01b03166000908152600d602052604081208054909190611b29908490612f5d565b925050819055508060066000828254611b4291906126cb565b9091555050600284015460058054600090611b5e908490612f5d565b9091555050600154600285015460408051600081526001600160a01b039093166020840152820152606081018290527fe3a6c3905c6f07647dc87b04150250121d312e6273863eb41ab1d8001132dc469060800160405180910390a1857fc12f92cbba8a6bc549f0a1c14d4fc0e716850e8ce0b8371d61247ea355f5ea38866001604051611bed9291906130df565b60405180910390a2611c008660006125c1565b6112de8661207e565b6000620f424082600301548360020154611c239190612f70565b611c2d9190612f87565b905060006127108360050154612710611c469190612f5d565b8460020154611c559190612f70565b611c5f9190612f87565b60015460005460405163095ea7b360e01b81526001600160a01b03918216600482015260248101869052929350169063095ea7b3906044016020604051808303816000875af1158015611cb6573d6000803e3d6000fd5b505050506040513d601f19601f82011682018060405250810190611cda9190612cb4565b506040805160e0810182526001546001600160a01b03168152735f0b1a82749cb4e2278ec87f8bf6b618dc71a8bf6020820152309181019190915260009060608101611d28426103846126cb565b81526020810185905260408082018590526000606090920182905290549051630109bc7360e71b81529192506001600160a01b0316906384de398090611d72908490600401613086565b6020604051808303816000875af1925050508015611dad575060408051601f3d908101601f19168201909252611daa91810190612fa9565b60015b611e37576001546000805460405163095ea7b360e01b81526001600160a01b03918216600482015260248101929092529091169063095ea7b3906044016020604051808303816000875af1158015611e09573d6000803e3d6000fd5b505050506040513d601f19601f82011682018060405250810190611e2d9190612cb4565b506112de8661207e565b82811015611ece576001546000805460405163095ea7b360e01b81526001600160a01b03918216600482015260248101929092529091169063095ea7b3906044016020604051808303816000875af1158015611e97573d6000803e3d6000fd5b505050506040513d601f19601f82011682018060405250810190611ebb9190612cb4565b50611ec58761207e565b50505050505050565b60018501546001600160a01b03166000908152600b602052604081208054839290611efa9084906126cb565b909155505060018501546001600160a01b03166000908152600d602052604081208054839290611f2b908490612f5d565b925050819055508060056000828254611f4491906126cb565b925050819055508360066000828254611f5d9190612f5d565b90915550506001546000805460405163095ea7b360e01b81526001600160a01b03918216600482015260248101929092529091169063095ea7b3906044016020604051808303816000875af1158015611fba573d6000803e3d6000fd5b505050506040513d601f19601f82011682018060405250810190611fde9190612cb4565b50600154604080516001600160a01b039092168252600060208301528101859052606081018290527fe3a6c3905c6f07647dc87b04150250121d312e6273863eb41ab1d8001132dc469060800160405180910390a1867fc12f92cbba8a6bc549f0a1c14d4fc0e716850e8ce0b8371d61247ea355f5ea388760006040516120669291906130df565b60405180910390a26120798760016125c1565b611ec5875b60408051808201825262030d4080825260006020808401829052845160a08101865282815280820183905280860183905285519182018652828252606081019190915260808101929092528251935163fc5fecd560e01b8152600481019490945291929091906001600160a01b037f0000000000000000000000000000000000000000000000000000000000000000169063fc5fecd5906024016040805180830381865afa158015612134573d6000803e3d6000fd5b505050506040513d601f19601f820116820180604052508101906121589190612c86565b6040516370a0823160e01b81523060048201529092508291506001600160a01b037f000000000000000000000000000000000000000000000000000000000000000016906370a0823190602401602060405180830381865afa1580156121c2573d6000803e3d6000fd5b505050506040513d601f19601f820116820180604052508101906121e69190612fa9565b10156122055760405163356680b760e01b815260040160405180910390fd5b60008460405160240161221a91815260200190565b60408051601f19818403018152918152602080830180516001600160e01b031663367d44d960e01b179052905191925060009161225a91600491016130f3565b60408051601f19818403018152908290526306cb898360e01b825291506001600160a01b037f000000000000000000000000000000000000000000000000000000000000000016906306cb8983906122de9084907f00000000000000000000000000000000000000000000000000000000000000009087908b908b90600401613192565b600060405180830381600087803b1580156122f857600080fd5b505af1925050508015612309575060015b6123265760405163337a511360e21b815260040160405180910390fd5b7f39f8c79736fed93bca390bb3d6ff7da07482edb61cd7dafcfba496821d6ab7a36040516112d5906040808252601490820152732d32ba30a437b83832b91d2d32ba30a1b430b4b760611b6060820152608060208201819052601190820152704f7574626f756e642043616c6c6261636b60781b60a082015260c00190565b6000818152600860205260408120600101546001600160a01b031690620f42406123cf8789612f70565b6123d99190612f87565b6001600160a01b0383166000908152600a60205260409020549091508111156124155760405163356680b760e01b815260040160405180910390fd5b6103e88411156124385760405163af61069360e01b815260040160405180910390fd5b6001600160a01b0382166000908152600a602052604081208054839290612460908490612f5d565b90915550506001600160a01b0382166000908152600c60205260408120805483929061248d9084906126cb565b909155505060408051610100810182528481526001600160a01b0384811660208084019182528385018c8152606085018c8152608086018c815260a087018c8152600060c08901818152600160e08b018190528e8352600890975299902088518155955186860180546001600160a01b0319169190981617909655915160028501555160038401555160048301559151600582015592516006840180549394939192909160ff191690838181111561254757612547612b53565b021790555060e08201518160060160016101000a81548160ff021916908315150217905550905050816001600160a01b0316837fbca4816edaab33691a6807e1676a051d59ee0cfdaf4854d8a8a4785025b27cfd60008a8a8a6040516125b0949392919061305d565b60405180910390a3611ec5836114ed565b60018160018111156125d5576125d5612b53565b0361260857600082815260086020526040902060038101546004820154600590920154612603929085611764565b61267f565b600082815260086020908152604080832060038101546001909101546001600160a01b03168452600a909252822054620f42409161264591612f70565b61264f9190612f87565b60008481526008602052604090206003810154600482015460059092015492935061267d92849290876123a5565b505b6000828152600860205260409020600601805482919060ff1916600183818111156126ac576126ac612b53565b02179055505050565b634e487b7160e01b600052601160045260246000fd5b808201808211156126de576126de6126b5565b92915050565b6000815180845260005b8181101561270a576020818501810151868301820152016126ee565b506000602082860101526020601f19601f83011685010191505092915050565b60208152600061273d60208301846126e4565b9392505050565b634e487b7160e01b600052604160045260246000fd5b604080519081016001600160401b038111828210171561277c5761277c612744565b60405290565b604051608081016001600160401b038111828210171561277c5761277c612744565b600082601f8301126127b557600080fd5b81356001600160401b038111156127ce576127ce612744565b604051601f8201601f19908116603f011681016001600160401b03811182821017156127fc576127fc612744565b60405281815283820160200185101561281457600080fd5b816020850160208301376000918101602001919091529392505050565b6001600160a01b038116811461147357600080fd5b60008083601f84011261285857600080fd5b5081356001600160401b0381111561286f57600080fd5b60208301915083602082850101111561288757600080fd5b9250929050565b801515811461147357600080fd5b600060a082840312156128ae57600080fd5b60405160a081016001600160401b03811182821017156128d0576128d0612744565b60405290508082356128e181612831565b815260208301356128f18161288e565b6020820152604083013561290481612831565b604082015260608301356001600160401b0381111561292257600080fd5b61292e858286016127a4565b606083015250608092830135920191909152919050565b60008060008060008086880360c081121561295f57600080fd5b87356001600160401b0381111561297557600080fd5b6129818a828b016127a4565b975050602088013561299281612831565b955060408801356001600160401b038111156129ad57600080fd5b6129b98a828b01612846565b9096509450506040605f19820112156129d157600080fd5b506129da61275a565b6060880135815260808801356129ef8161288e565b6020820152915060a08701356001600160401b03811115612a0f57600080fd5b612a1b89828a0161289c565b9150509295509295509295565b600060208284031215612a3a57600080fd5b5035919050565b600060208284031215612a5357600080fd5b81356001600160401b03811115612a6957600080fd5b820160c0818503121561273d57600080fd5b600080600060608486031215612a9057600080fd5b505081359360208301359350604090920135919050565b600080600080600060808688031215612abf57600080fd5b85356001600160401b03811115612ad557600080fd5b860160608189031215612ae757600080fd5b94506020860135612af781612831565b93506040860135925060608601356001600160401b03811115612b1957600080fd5b612b2588828901612846565b969995985093965092949392505050565b600060208284031215612b4857600080fd5b813561273d81612831565b634e487b7160e01b600052602160045260246000fd5b60028110612b8757634e487b7160e01b600052602160045260246000fd5b9052565b8881526001600160a01b038816602082015260408101879052606081018690526080810185905260a081018490526101008101612bcb60c0830185612b69565b82151560e08301529998505050505050505050565b600060208284031215612bf257600080fd5b81356001600160401b03811115612c0857600080fd5b82016080818503121561273d57600080fd5b60008060008060808587031215612c3057600080fd5b5050823594602084013594506040840135936060013592509050565b600181811c90821680612c6057607f821691505b602082108103612c8057634e487b7160e01b600052602260045260246000fd5b50919050565b60008060408385031215612c9957600080fd5b8251612ca481612831565b6020939093015192949293505050565b600060208284031215612cc657600080fd5b815161273d8161288e565b81835281816020850137506000828201602090810191909152601f909101601f19169091010190565b60018060a01b03815116825260208101511515602083015260018060a01b0360408201511660408301526000606082015160a06060850152612d3f60a08501826126e4565b608093840151949093019390935250919050565b60c081526000612d6660c08301896126e4565b6001600160a01b03881660208401528281036040840152612d88818789612cd1565b85516060850152602086015115156080850152905082810360a0840152612daf8185612cfa565b9998505050505050505050565b6000808335601e19843603018112612dd357600080fd5b83016020810192503590506001600160401b03811115612df257600080fd5b80360382131561288757600080fd5b60408152601260408201527120b137b93a1037b7102d32ba30a1b430b4b760711b6060820152608060208201526000612e3a8384612dbc565b60c06080850152612e5061014085018284612cd1565b9150506020840135612e6181612831565b6001600160a01b031660a0840152604084013560c08401526060840135612e878161288e565b151560e08401526080840135610100840152612ea660a0850185612dbc565b848303607f1901610120860152612ebe838284612cd1565b9695505050505050565b60006080828403128015612edb57600080fd5b506000612ee6612782565b83518060070b8114612ef6578283fd5b815260208401516001600160401b0381168114612f11578283fd5b60208201526040840151600381900b8114612f2a578283fd5b604082015260609384015193810193909352509092915050565b600060018201612f5657612f566126b5565b5060010190565b818103818111156126de576126de6126b5565b80820281158282048414176126de576126de6126b5565b600082612fa457634e487b7160e01b600052601260045260246000fd5b500490565b600060208284031215612fbb57600080fd5b5051919050565b6040815260136040820152722932bb32b93a1037b7102d32ba30a1b430b4b760691b60608201526080602082015260008235612ffd81612831565b6001600160a01b03166080830152602083013561301981612831565b6001600160a01b031660a0830152604083013560c083015261303e6060840184612dbc565b608060e085015261305461010085018284612cd1565b95945050505050565b6080810161306b8287612b69565b84602083015283604083015282606083015295945050505050565b81516001600160a01b039081168252602080840151821690830152604080840151821690830152606080840151908301526080808401519083015260a0838101519083015260c092830151169181019190915260e00190565b8281526040810161273d6020830184612b69565b6000808354818160011c9050600182168061310f57607f821691505b60208210810361312d57634e487b7160e01b84526022600452602484fd5b808015613141576001811461315657613186565b60ff1984168752821515830287019450613186565b60008881526020902060005b8481101561317e57815489820152600190910190602001613162565b505082870194505b50929695505050505050565b60c0815260006131a560c08301886126e4565b6001600160a01b038716602084015282810360408401526131c681876126e4565b85516060850152602086015115156080850152905082810360a08401526131ed8185612cfa565b9897505050505050505056fea2646970667358221220e14e93df0ddd725d7bf8a4c12bec60a06ba40936a3188df4c1358f0e337084a864736f6c634300081a0033","abi":[{"inputs":[{"internalType":"address payable","name":"gatewayAddress","type":"address"},{"internalType":"address","name":"pythOracleAddress","type":"address"},{"internalType":"address","name":"swapRouterAddress","type":"address"},{"internalType":"address","name":"_usdcToken","type":"address"},{"internalType":"bytes32","name":"_zetaPriceId","type":"bytes32"},{"internalType":"address","name":"_callbackChain","type":"address"},{"internalType":"bytes","name":"_callbackAddress","type":"bytes"},{"internalType":"address","name":"_connectedGasZRC20","type":"address"},{"internalType":"address","name":"_owner","type":"address"}],"stateMutability":"nonpayable","type":"constructor"},{"inputs":[],"name":"InsufficientFunds","type":"error"},{"inputs":[],"name":"InvalidOrder","type":"error"},{"inputs":[],"name":"OrderNotActive","type":"error"},{"inputs":[],"name":"PriceCheckFailed","type":"error"},{"inputs":[{"internalType":"uint256","name":"expectedAmount","type":"uint256"},{"internalType":"uint256","name":"receivedAmount","type":"uint256"},{"internalType":"uint256","name":"slippageBps","type":"uint256"}],"name":"SlippageExceeded","type":"error"},{"inputs":[],"name":"SwapFailed","type":"error"},{"inputs":[],"name":"TransferFailed","type":"error"},{"inputs":[],"name":"Unauthorized","type":"error"},{"anonymous":false,"inputs":[{"indexed":false,"internalType":"string","name":"","type":"string"},{"components":[{"internalType":"bytes","name":"sender","type":"bytes"},{"internalType":"address","name":"asset","type":"address"},{"internalType":"uint256","name":"amount","type":"uint256"},{"internalType":"bool","name":"outgoing","type":"bool"},{"internalType":"uint256","name":"chainID","type":"uint256"},{"internalType":"bytes","name":"revertMessage","type":"bytes"}],"indexed":false,"internalType":"struct AbortContext","name":"","type":"tuple"}],"name":"AbortEvent","type":"event"},{"anonymous":false,"inputs":[{"indexed":false,"internalType":"string","name":"","type":"string"},{"indexed":false,"internalType":"string","name":"","type":"string"}],"name":"HelloEvent","type":"event"},{"anonymous":false,"inputs":[{"indexed":true,"internalType":"uint256","name":"orderId","type":"uint256"}],"name":"OrderCancelled","type":"event"},{"anonymous":false,"inputs":[{"indexed":true,"internalType":"uint256","name":"orderId","type":"uint256"},{"indexed":true,"internalType":"address","name":"owner","type":"address"},{"indexed":false,"internalType":"enum ZetaOrderBook.OrderType","name":"orderType","type":"uint8"},{"indexed":false,"internalType":"uint256","name":"amount","type":"uint256"},{"indexed":false,"internalType":"uint256","name":"priceLow","type":"uint256"},{"indexed":false,"internalType":"uint256","name":"priceHigh","type":"uint256"}],"name":"OrderCreated","type":"event"},{"anonymous":false,"inputs":[{"indexed":true,"internalType":"uint256","name":"orderId","type":"uint256"},{"indexed":false,"internalType":"uint256","name":"executionPrice","type":"uint256"},{"indexed":false,"internalType":"enum ZetaOrderBook.OrderType","name":"orderType","type":"uint8"}],"name":"OrderExecuted","type":"event"},{"anonymous":false,"inputs":[{"indexed":true,"internalType":"address","name":"previousOwner","type":"address"},{"indexed":true,"internalType":"address","name":"newOwner","type":"address"}],"name":"OwnershipTransferred","type":"event"},{"anonymous":false,"inputs":[{"indexed":true,"internalType":"uint256","name":"orderId","type":"uint256"},{"indexed":false,"internalType":"uint256","name":"currentPrice","type":"uint256"},{"indexed":false,"internalType":"uint256","name":"targetPriceLow","type":"uint256"},{"indexed":false,"internalType":"uint256","name":"targetPriceHigh","type":"uint256"},{"indexed":false,"internalType":"bool","name":"conditionsMet","type":"bool"}],"name":"PriceChecked","type":"event"},{"anonymous":false,"inputs":[{"indexed":false,"internalType":"string","name":"","type":"string"},{"components":[{"internalType":"address","name":"sender","type":"address"},{"internalType":"address","name":"asset","type":"address"},{"internalType":"uint256","name":"amount","type":"uint256"},{"internalType":"bytes","name":"revertMessage","type":"bytes"}],"indexed":false,"internalType":"struct RevertContext","name":"","type":"tuple"}],"name":"RevertEvent","type":"event"},{"anonymous":false,"inputs":[{"indexed":false,"internalType":"address","name":"tokenIn","type":"address"},{"indexed":false,"internalType":"address","name":"tokenOut","type":"address"},{"indexed":false,"internalType":"uint256","name":"amountIn","type":"uint256"},{"indexed":false,"internalType":"uint256","name":"amountOut","type":"uint256"}],"name":"SwapCompleted","type":"event"},{"anonymous":false,"inputs":[{"indexed":true,"internalType":"address","name":"user","type":"address"},{"indexed":false,"internalType":"uint256","name":"amount","type":"uint256"}],"name":"UsdcDeposited","type":"event"},{"anonymous":false,"inputs":[{"indexed":true,"internalType":"address","name":"user","type":"address"},{"indexed":false,"internalType":"uint256","name":"amount","type":"uint256"}],"name":"UsdcWithdrawn","type":"event"},{"anonymous":false,"inputs":[{"indexed":true,"internalType":"address","name":"user","type":"address"},{"indexed":false,"internalType":"uint256","name":"amount","type":"uint256"}],"name":"ZetaDeposited","type":"event"},{"anonymous":false,"inputs":[{"indexed":true,"internalType":"address","name":"user","type":"address"},{"indexed":false,"internalType":"uint256","name":"amount","type":"uint256"}],"name":"ZetaWithdrawn","type":"event"},{"inputs":[{"internalType":"bytes","name":"receiver","type":"bytes"},{"internalType":"address","name":"zrc20","type":"address"},{"internalType":"bytes","name":"message","type":"bytes"},{"components":[{"internalType":"uint256","name":"gasLimit","type":"uint256"},{"internalType":"bool","name":"isArbitraryCall","type":"bool"}],"internalType":"struct CallOptions","name":"callOptions","type":"tuple"},{"components":[{"internalType":"address","name":"revertAddress","type":"address"},{"internalType":"bool","name":"callOnRevert","type":"bool"},{"internalType":"address","name":"abortAddress","type":"address"},{"internalType":"bytes","name":"revertMessage","type":"bytes"},{"internalType":"uint256","name":"onRevertGasLimit","type":"uint256"}],"internalType":"struct RevertOptions","name":"revertOptions","type":"tuple"}],"name":"call","outputs":[],"stateMutability":"nonpayable","type":"function"},{"inputs":[],"name":"callbackAddress","outputs":[{"internalType":"bytes","name":"","type":"bytes"}],"stateMutability":"view","type":"function"},{"inputs":[],"name":"callbackChain","outputs":[{"internalType":"address","name":"","type":"address"}],"stateMutability":"view","type":"function"},{"inputs":[{"internalType":"uint256","name":"orderId","type":"uint256"}],"name":"cancelOrder","outputs":[],"stateMutability":"nonpayable","type":"function"},{"inputs":[{"internalType":"uint256","name":"orderId","type":"uint256"}],"name":"checkAndExecuteOrder","outputs":[],"stateMutability":"nonpayable","type":"function"},{"inputs":[],"name":"connectedGasZRC20","outputs":[{"internalType":"address","name":"","type":"address"}],"stateMutability":"view","type":"function"},{"inputs":[],"name":"contractUsdcBalance","outputs":[{"internalType":"uint256","name":"","type":"uint256"}],"stateMutability":"view","type":"function"},{"inputs":[],"name":"contractZetaBalance","outputs":[{"internalType":"uint256","name":"","type":"uint256"}],"stateMutability":"view","type":"function"},{"inputs":[{"internalType":"uint256","name":"zetaAmount","type":"uint256"},{"internalType":"uint256","name":"targetPriceLow","type":"uint256"},{"internalType":"uint256","name":"targetPriceHigh","type":"uint256"},{"internalType":"uint256","name":"slippageBps","type":"uint256"}],"name":"createBuyOrder","outputs":[],"stateMutability":"nonpayable","type":"function"},{"inputs":[{"internalType":"uint256","name":"targetPriceLow","type":"uint256"},{"internalType":"uint256","name":"targetPriceHigh","type":"uint256"},{"internalType":"uint256","name":"slippageBps","type":"uint256"}],"name":"createSellOrder","outputs":[],"stateMutability":"nonpayable","type":"function"},{"inputs":[{"internalType":"uint256","name":"amount","type":"uint256"}],"name":"depositUsdc","outputs":[],"stateMutability":"nonpayable","type":"function"},{"inputs":[],"name":"depositZeta","outputs":[],"stateMutability":"payable","type":"function"},{"inputs":[],"name":"gateway","outputs":[{"internalType":"contract GatewayZEVM","name":"","type":"address"}],"stateMutability":"view","type":"function"},{"inputs":[],"name":"getZetaPrice","outputs":[{"internalType":"uint256","name":"","type":"uint256"},{"internalType":"uint256","name":"","type":"uint256"}],"stateMutability":"view","type":"function"},{"inputs":[],"name":"nextOrderId","outputs":[{"internalType":"uint256","name":"","type":"uint256"}],"stateMutability":"view","type":"function"},{"inputs":[{"components":[{"internalType":"bytes","name":"sender","type":"bytes"},{"internalType":"address","name":"asset","type":"address"},{"internalType":"uint256","name":"amount","type":"uint256"},{"internalType":"bool","name":"outgoing","type":"bool"},{"internalType":"uint256","name":"chainID","type":"uint256"},{"internalType":"bytes","name":"revertMessage","type":"bytes"}],"internalType":"struct AbortContext","name":"context","type":"tuple"}],"name":"onAbort","outputs":[],"stateMutability":"nonpayable","type":"function"},{"inputs":[{"components":[{"internalType":"bytes","name":"origin","type":"bytes"},{"internalType":"address","name":"sender","type":"address"},{"internalType":"uint256","name":"chainID","type":"uint256"}],"internalType":"struct MessageContext","name":"context","type":"tuple"},{"internalType":"address","name":"zrc20","type":"address"},{"internalType":"uint256","name":"amount","type":"uint256"},{"internalType":"bytes","name":"message","type":"bytes"}],"name":"onCall","outputs":[],"stateMutability":"nonpayable","type":"function"},{"inputs":[{"components":[{"internalType":"address","name":"sender","type":"address"},{"internalType":"address","name":"asset","type":"address"},{"internalType":"uint256","name":"amount","type":"uint256"},{"internalType":"bytes","name":"revertMessage","type":"bytes"}],"internalType":"struct RevertContext","name":"context","type":"tuple"}],"name":"onRevert","outputs":[],"stateMutability":"nonpayable","type":"function"},{"inputs":[{"internalType":"uint256","name":"","type":"uint256"}],"name":"orders","outputs":[{"internalType":"uint256","name":"id","type":"uint256"},{"internalType":"address","name":"owner","type":"address"},{"internalType":"uint256","name":"amount","type":"uint256"},{"internalType":"uint256","name":"priceLow","type":"uint256"},{"internalType":"uint256","name":"priceHigh","type":"uint256"},{"internalType":"uint256","name":"slippage","type":"uint256"},{"internalType":"enum ZetaOrderBook.OrderType","name":"orderType","type":"uint8"},{"internalType":"bool","name":"active","type":"bool"}],"stateMutability":"view","type":"function"},{"inputs":[],"name":"owner","outputs":[{"internalType":"address","name":"","type":"address"}],"stateMutability":"view","type":"function"},{"inputs":[],"name":"pythOracle","outputs":[{"internalType":"contract IPyth","name":"","type":"address"}],"stateMutability":"view","type":"function"},{"inputs":[],"name":"swapRouter","outputs":[{"internalType":"contract INativeSwapRouter","name":"","type":"address"}],"stateMutability":"view","type":"function"},{"inputs":[],"name":"sweepConnectedGas","outputs":[],"stateMutability":"nonpayable","type":"function"},{"inputs":[{"internalType":"address","name":"newOwner","type":"address"}],"name":"transferOwnership","outputs":[],"stateMutability":"nonpayable","type":"function"},{"inputs":[],"name":"usdcToken","outputs":[{"internalType":"address","name":"","type":"address"}],"stateMutability":"view","type":"function"},{"inputs":[{"internalType":"address","name":"","type":"address"}],"name":"userUsdcBalance","outputs":[{"internalType":"uint256","name":"","type":"uint256"}],"stateMutability":"view","type":"function"},{"inputs":[{"internalType":"address","name":"","type":"address"}],"name":"userUsdcBalanceLocked","outputs":[{"internalType":"uint256","name":"","type":"uint256"}],"stateMutability":"view","type":"function"},{"inputs":[{"internalType":"address","name":"","type":"address"}],"name":"userZetaBalance","outputs":[{"internalType":"uint256","name":"","type":"uint256"}],"stateMutability":"view","type":"function"},{"inputs":[{"internalType":"address","name":"","type":"address"}],"name":"userZetaBalanceLocked","outputs":[{"internalType":"uint256","name":"","type":"uint256"}],"stateMutability":"view","type":"function"},{"inputs":[{"internalType":"uint256","name":"amount","type":"uint256"}],"name":"withdrawUsdc","outputs":[],"stateMutability":"nonpayable","type":"function"},{"inputs":[{"internalType":"uint256","name":"amount","type":"uint256"}],"name":"withdrawZeta","outputs":[],"stateMutability":"nonpayable","type":"function"},{"inputs":[],"name":"zetaPriceId","outputs":[{"internalType":"bytes32","name":"","type":"bytes32"}],"stateMutability":"view","type":"function"},{"stateMutability":"payable","type":"receive"}]}